:020000040000FA
:060000000A128A11EE2F26
:100E0600831603130815881508008316031789012E
:100E160083160313860108007008203E840083139E
:100E26000008831203138600080083120313080CBC
:100E3600F200720C0139F300F4017308F000740833
:100E4600F100252F080083120313080CF200F20CA0
:100E5600720C0139F300F4017308F0007408F10014
:100E6600342F08003F3406345B344F3466346D3417
:100E76007D3407347F346F3477347C3439345E34D0
:100E8600793471347E088A007F0882000A128A113A
:100E960045270A128A118000840A04087D06031970
:100EA6000034FF0A0319FE0A492F0A128A1108277D
:100EB6000A128A110A128A1103270A128A11F801E4
:100EC600F701B42FB42F0A128A1126270A128A11A3
:100ED60070037104031D702F712F742FF701F70A29
:100EE600742F0A128A1118270A128A1170037104C4
:100EF600031D7E2F7F2FCD2F0330F5007508F700D9
:100F0600CD2FCD2F0A128A1126270A128A117008B0
:100F16007104031D8F2F902FCD2F0230F500750819
:100F2600F700CD2FCD2F0130F5007508F807F70132
:100F3600CD2F0A128A1118270A128A117008710415
:100F4600031DA62FA72FCD2F0430F5007508F70037
:100F5600CD2FCD2FFF30F5007508F807F701CD2FFF
:100F6600CD2F7708F500F6017608003A0319BC2F55
:100F7600CD2F7508003A0319662F013A0319852FFC
:100F8600033A0319962F013A03199C2F073A0319BE
:100F9600AD2FCD2F7808F000F101F01BF1030A12F6
:100FA6008A110F270A128A117808803A763E031CA6
:100FB600DD2FDE2FE02FF801E02FF81FE32FE42FBF
:100FC600B42F0930F5007508F800B42FB42FB42FEC
:100FD6000A128A11002883133030FD000730FE0004
:100FE6003530FF00203084000A128A1149270A1280
:0A0FF6008A1183010A128A11582F94
:04400E00D4F0FFFFEC
:00000001FF
